{
  "contractName": "Strings",
  "abi": [
    {
      "inputs": [
        {
          "internalType": "bytes",
          "name": "data",
          "type": "bytes"
        }
      ],
      "name": "toString",
      "outputs": [
        {
          "internalType": "string",
          "name": "",
          "type": "string"
        }
      ],
      "stateMutability": "pure",
      "type": "function",
      "constant": true
    }
  ],
  "bytecode": "0x61073f610053600b82828239805160001a607314610046577f4e487b7100000000000000000000000000000000000000000000000000000000600052600060045260246000fd5b30600052607381538281f3fe73000000000000000000000000000000000000000030146080604052600436106100355760003560e01c806371aad10d1461003a575b600080fd5b610054600480360381019061004f91906104b5565b61006a565b6040516100619190610586565b60405180910390f35b606060006002835161007c91906105e1565b6002610088919061063b565b67ffffffffffffffff8111156100a1576100a061038a565b5b6040519080825280601f01601f1916602001820160405280156100d35781602001600182028036833780820191505090505b5090507f30000000000000000000000000000000000000000000000000000000000000008160008151811061010b5761010a610691565b5b60200101907effffffffffffffffffffffffffffffffffffffffffffffffffffffffffffff1916908160001a9053507f78000000000000000000000000000000000000000000000000000000000000008160018151811061016f5761016e610691565b5b60200101907effffffffffffffffffffffffffffffffffffffffffffffffffffffffffffff1916908160001a90535060005b8351811015610351577f303132333435363738396162636465660000000000000000000000000000000060048583815181106101e0576101df610691565b5b602001015160f81c60f81b7effffffffffffffffffffffffffffffffffffffffffffffffffffffffffffff1916901c60f81c60ff166010811061022657610225610691565b5b1a60f81b8260028361023891906105e1565b6002610244919061063b565b8151811061025557610254610691565b5b60200101907effffffffffffffffffffffffffffffffffffffffffffffffffffffffffffff1916908160001a9053507f3031323334353637383961626364656600000000000000000000000000000000600f60f81b8583815181106102bd576102bc610691565b5b602001015160f81c60f81b1660f81c60ff16601081106102e0576102df610691565b5b1a60f81b826002836102f291906105e1565b60036102fe919061063b565b8151811061030f5761030e610691565b5b60200101907effffffffffffffffffffffffffffffffffffffffffffffffffffffffffffff1916908160001a9053508080610349906106c0565b9150506101a1565b5080915050919050565b6000604051905090565b600080fd5b600080fd5b600080fd5b600080fd5b6000601f19601f8301169050919050565b7f4e487b7100000000000000000000000000000000000000000000000000000000600052604160045260246000fd5b6103c282610379565b810181811067ffffffffffffffff821117156103e1576103e061038a565b5b80604052505050565b60006103f461035b565b905061040082826103b9565b919050565b600067ffffffffffffffff8211156104205761041f61038a565b5b61042982610379565b9050602081019050919050565b82818337600083830152505050565b600061045861045384610405565b6103ea565b90508281526020810184848401111561047457610473610374565b5b61047f848285610436565b509392505050565b600082601f83011261049c5761049b61036f565b5b81356104ac848260208601610445565b91505092915050565b6000602082840312156104cb576104ca610365565b5b600082013567ffffffffffffffff8111156104e9576104e861036a565b5b6104f584828501610487565b91505092915050565b600081519050919050565b600082825260208201905092915050565b60005b8381101561053857808201518184015260208101905061051d565b83811115610547576000848401525b50505050565b6000610558826104fe565b6105628185610509565b935061057281856020860161051a565b61057b81610379565b840191505092915050565b600060208201905081810360008301526105a0818461054d565b905092915050565b6000819050919050565b7f4e487b7100000000000000000000000000000000000000000000000000000000600052601160045260246000fd5b60006105ec826105a8565b91506105f7836105a8565b9250817fffffffffffffffffffffffffffffffffffffffffffffffffffffffffffffffff04831182151516156106305761062f6105b2565b5b828202905092915050565b6000610646826105a8565b9150610651836105a8565b9250827fffffffffffffffffffffffffffffffffffffffffffffffffffffffffffffffff03821115610686576106856105b2565b5b828201905092915050565b7f4e487b7100000000000000000000000000000000000000000000000000000000600052603260045260246000fd5b60006106cb826105a8565b91507fffffffffffffffffffffffffffffffffffffffffffffffffffffffffffffffff8214156106fe576106fd6105b2565b5b60018201905091905056fea264697066735822122064b7d815650a2fbad6880bdf3009e6337ffa437faf66e8b7e3ffd448af1003de64736f6c634300080b0033",
  "immutableReferences": {},
  "source": "// SPDX-License-Identifier: MIT\n\npragma solidity ^0.8.11;\n\n//  * Strings Library\n//  *\n//  * In summary this is a simple library of string functions which make simple\n//  * string operations less tedious in solidity.\n//  *\n//  * Please be aware these functions can be quite gas heavy so use them only when\n//  * necessary not to clog the blockchain with expensive transactions.\n\nlibrary Strings {\n    bytes16 private constant _HEX_SYMBOLS = \"0123456789abcdef\";\n\n    /**\n     * @dev Converts a bytes` to its ASCII `string` decimal representation.\n     */\n\n    function toString(bytes memory data) public pure returns (string memory) {\n        bytes memory buffer = new bytes(2 + data.length * 2);\n        buffer[0] = \"0\";\n        buffer[1] = \"x\";\n        for (uint256 i = 0; i < data.length; i++) {\n            buffer[2 + i * 2] = _HEX_SYMBOLS[uint256(uint8(data[i] >> 4))];\n            buffer[3 + i * 2] = _HEX_SYMBOLS[uint256(uint8(data[i] & 0x0f))];\n        }\n        return string(buffer);\n    }\n\n    /**\n     * @dev Converts a `uint256` to its ASCII `string` decimal representation.\n     */\n    function uint256ToString(uint256 _value)\n        internal\n        pure\n        returns (string memory)\n    {\n        if (_value == 0) {\n            return \"0\";\n        }\n        uint256 temp = _value;\n        uint256 digits;\n        while (temp != 0) {\n            digits++;\n            temp /= 10;\n        }\n        bytes memory buffer = new bytes(digits);\n        while (_value != 0) {\n            digits -= 1;\n            buffer[digits] = bytes1(uint8(48 + uint256(_value % 10)));\n            _value /= 10;\n        }\n        return string(buffer);\n    }\n\n    /**\n     * @dev Converts a `uint256` to its ASCII `string` hexadecimal representation.\n     */\n\n    function toHexString(uint256 _value) internal pure returns (string memory) {\n        if (_value == 0) {\n            return \"0x00\";\n        }\n        uint256 temp = _value;\n        uint256 _length = 0;\n        while (temp != 0) {\n            _length++;\n            temp >>= 8;\n        }\n        return toHexStringFixedLength(_value, _length);\n    }\n\n    /**\n     * @dev Converts a `uint256` to its ASCII `string` hexadecimal representation with fixed length.\n     */\n    function toHexStringFixedLength(uint256 _value, uint256 _length)\n        internal\n        pure\n        returns (string memory)\n    {\n        bytes memory buffer = new bytes(2 * _length + 2);\n        buffer[0] = \"0\";\n        buffer[1] = \"x\";\n        for (uint256 i = 2 * _length + 1; i > 1; --i) {\n            buffer[i] = _HEX_SYMBOLS[_value & 0xf];\n            _value >>= 4;\n        }\n        require(_value == 0, \"Strings: hex length insufficient\");\n        return string(buffer);\n    }\n\n    //  * Concat (High gas cost)\n    //  *\n    //  * Appends two strings together and returns a new value\n    //  *\n    //  * @param _base When being used for a data type this is the extended object\n    //  *              otherwise this is the string which will be the concatenated\n    //  *              prefix\n    //  * @param _value The value to be the concatenated suffix\n    //  * @return string The resulting string from combinging the base and value\n\n    function concat(string memory _base, string memory _value)\n        internal\n        pure\n        returns (string memory)\n    {\n        bytes memory _baseBytes = bytes(_base);\n        bytes memory _valueBytes = bytes(_value);\n\n        assert(_valueBytes.length > 0);\n\n        string memory _tmpValue = new string(\n            _baseBytes.length + _valueBytes.length\n        );\n        bytes memory _newValue = bytes(_tmpValue);\n\n        uint256 i;\n        uint256 j;\n\n        for (i = 0; i < _baseBytes.length; i++) {\n            _newValue[j++] = _baseBytes[i];\n        }\n\n        for (i = 0; i < _valueBytes.length; i++) {\n            _newValue[j++] = _valueBytes[i];\n        }\n\n        return string(_newValue);\n    }\n\n    //  * Index Of\n    //  *\n    //  * Locates and returns the position of a character within a string\n    //  *\n    //  * @param _base When being used for a data type this is the extended object\n    //  *              otherwise this is the string acting as the haystack to be\n    //  *              searched\n    //  * @param _value The needle to search for, at present this is currently\n    //  *               limited to one character\n    //  * @return int The position of the needle starting from 0 and returning -1\n    //  *             in the case of no matches found\n\n    function indexOf(string memory _base, string memory _value)\n        internal\n        pure\n        returns (int256)\n    {\n        return _indexOf(_base, _value, 0);\n    }\n\n    //  * Index Of\n    //  *\n    //  * Locates and returns the position of a character within a string starting\n    //  * from a defined offset\n    //  *\n    //  * @param _base When being used for a data type this is the extended object\n    //  *              otherwise this is the string acting as the haystack to be\n    //  *              searched\n    //  * @param _value The needle to search for, at present this is currently\n    //  *               limited to one character\n    //  * @param _offset The starting point to start searching from which can start\n    //  *                from 0, but must not exceed the length of the string\n    //  * @return int The position of the needle starting from 0 and returning -1\n    //  *             in the case of no matches found\n\n    function _indexOf(\n        string memory _base,\n        string memory _value,\n        uint256 _offset\n    ) internal pure returns (int256) {\n        bytes memory _baseBytes = bytes(_base);\n        bytes memory _valueBytes = bytes(_value);\n\n        assert(_valueBytes.length == 1);\n\n        for (uint256 i = _offset; i < _baseBytes.length; i++) {\n            if (_baseBytes[i] == _valueBytes[0]) {\n                return int256(i);\n            }\n        }\n\n        return -1;\n    }\n\n    //  * Length\n    //  *\n    //  * Returns the length of the specified string\n    //  *\n    //  * @param _base When being used for a data type this is the extended object\n    //  *              otherwise this is the string to be measured\n    //  * @return uint The length of the passed string\n\n    function length(string memory _base) internal pure returns (uint256) {\n        bytes memory _baseBytes = bytes(_base);\n        return _baseBytes.length;\n    }\n\n    //  * Sub String\n    //  *\n    //  * Extracts the beginning part of a string based on the desired length\n    //  *\n    //  * @param _base When being used for a data type this is the extended object\n    //  *              otherwise this is the string that will be used for\n    //  *              extracting the sub string from\n    //  * @param _length The length of the sub string to be extracted from the base\n    //  * @return string The extracted sub string\n\n    function substring(string memory _base, int256 _length)\n        internal\n        pure\n        returns (string memory)\n    {\n        return _substring(_base, _length, 0);\n    }\n\n    //  * Sub String\n    //  *\n    //  * Extracts the part of a string based on the desired length and offset. The\n    //  * offset and length must not exceed the lenth of the base string.\n    //  *\n    //  * @param _base When being used for a data type this is the extended object\n    //  *              otherwise this is the string that will be used for\n    //  *              extracting the sub string from\n    //  * @param _length The length of the sub string to be extracted from the base\n    //  * @param _offset The starting point to extract the sub string from\n    //  * @return string The extracted sub string\n\n    function _substring(\n        string memory _base,\n        int256 _length,\n        int256 _offset\n    ) internal pure returns (string memory) {\n        bytes memory _baseBytes = bytes(_base);\n\n        assert(uint256(_offset + _length) <= _baseBytes.length);\n\n        string memory _tmp = new string(uint256(_length));\n        bytes memory _tmpBytes = bytes(_tmp);\n\n        uint256 j = 0;\n        for (\n            uint256 i = uint256(_offset);\n            i < uint256(_offset + _length);\n            i++\n        ) {\n            _tmpBytes[j++] = _baseBytes[i];\n        }\n\n        return string(_tmpBytes);\n    }\n\n    //  * String Split (Very high gas cost)\n    //  *\n    //  * Splits a string into an array of strings based off the delimiter value.\n    //  * Please note this can be quite a gas expensive function due to the use of\n    //  * storage so only use if really required.\n    //  *\n    //  * @param _base When being used for a data type this is the extended object\n    //  *               otherwise this is the string value to be split.\n    //  * @param _value The delimiter to split the string on which must be a single\n    //  *               character\n    //  * @return string[] An array of values split based off the delimiter, but\n    //  *                  do not container the delimiter.\n\n    function split(string memory _base, string memory _value)\n        internal\n        pure\n        returns (string[] memory splitArr)\n    {\n        bytes memory _baseBytes = bytes(_base);\n\n        uint256 _offset = 0;\n        uint256 _splitsCount = 1;\n        while (_offset < _baseBytes.length - 1) {\n            int256 _limit = _indexOf(_base, _value, _offset);\n            if (_limit == -1) break;\n            else {\n                _splitsCount++;\n                _offset = uint256(_limit) + 1;\n            }\n        }\n\n        splitArr = new string[](_splitsCount);\n\n        _offset = 0;\n        _splitsCount = 0;\n        while (_offset < _baseBytes.length - 1) {\n            int256 _limit = _indexOf(_base, _value, _offset);\n            if (_limit == -1) {\n                _limit = int256(_baseBytes.length);\n            }\n\n            string memory _tmp = new string(uint256(_limit) - _offset);\n            bytes memory _tmpBytes = bytes(_tmp);\n\n            uint256 j = 0;\n            for (uint256 i = _offset; i < uint256(_limit); i++) {\n                _tmpBytes[j++] = _baseBytes[i];\n            }\n            _offset = uint256(_limit) + 1;\n            splitArr[_splitsCount++] = string(_tmpBytes);\n        }\n        return splitArr;\n    }\n\n    //  * Compare To\n    //  *\n    //  * Compares the characters of two strings, to ensure that they have an\n    //  * identical footprint\n    //  *\n    //  * @param _base When being used for a data type this is the extended object\n    //  *               otherwise this is the string base to compare against\n    //  * @param _value The string the base is being compared to\n    //  * @return bool Simply notates if the two string have an equivalent\n\n    function compareTo(string memory _base, string memory _value)\n        internal\n        pure\n        returns (bool)\n    {\n        bytes memory _baseBytes = bytes(_base);\n        bytes memory _valueBytes = bytes(_value);\n\n        if (_baseBytes.length != _valueBytes.length) {\n            return false;\n        }\n\n        for (uint256 i = 0; i < _baseBytes.length; i++) {\n            if (_baseBytes[i] != _valueBytes[i]) {\n                return false;\n            }\n        }\n\n        return true;\n    }\n\n    //  * Compare To Ignore Case (High gas cost)\n    //  *\n    //  * Compares the characters of two strings, converting them to the same case\n    //  * where applicable to alphabetic characters to distinguish if the values\n    //  * match.\n    //  *\n    //  * @param _base When being used for a data type this is the extended object\n    //  *               otherwise this is the string base to compare against\n    //  * @param _value The string the base is being compared to\n    //  * @return bool Simply notates if the two string have an equivalent value\n    //  *              discarding case\n\n    function compareToIgnoreCase(string memory _base, string memory _value)\n        internal\n        pure\n        returns (bool)\n    {\n        bytes memory _baseBytes = bytes(_base);\n        bytes memory _valueBytes = bytes(_value);\n\n        if (_baseBytes.length != _valueBytes.length) {\n            return false;\n        }\n\n        for (uint256 i = 0; i < _baseBytes.length; i++) {\n            if (\n                _baseBytes[i] != _valueBytes[i] &&\n                _upper(_baseBytes[i]) != _upper(_valueBytes[i])\n            ) {\n                return false;\n            }\n        }\n\n        return true;\n    }\n\n    //  * Upper\n    //  *\n    //  * Converts all the values of a string to their corresponding upper case\n    //  * value.\n    //  *\n    //  * @param _base When being used for a data type this is the extended object\n    //  *              otherwise this is the string base to convert to upper case\n    //  * @return string\n\n    function upper(string memory _base) internal pure returns (string memory) {\n        bytes memory _baseBytes = bytes(_base);\n        for (uint256 i = 0; i < _baseBytes.length; i++) {\n            _baseBytes[i] = _upper(_baseBytes[i]);\n        }\n        return string(_baseBytes);\n    }\n\n    //  * Lower\n    //  *\n    //  * Converts all the values of a string to their corresponding lower case\n    //  * value.\n    //  *\n    //  * @param _base When being used for a data type this is the extended object\n    //  *              otherwise this is the string base to convert to lower case\n    //  * @return string\n\n    function lower(string memory _base) internal pure returns (string memory) {\n        bytes memory _baseBytes = bytes(_base);\n        for (uint256 i = 0; i < _baseBytes.length; i++) {\n            _baseBytes[i] = _lower(_baseBytes[i]);\n        }\n        return string(_baseBytes);\n    }\n\n    //  * Upper\n    //  *\n    //  * Convert an alphabetic character to upper case and return the original\n    //  * value when not alphabetic\n    //  *\n    //  * @param _b1 The byte to be converted to upper case\n    //  * @return bytes1 The converted value if the passed value was alphabetic\n    //  *                and in a lower case otherwise returns the original value\n\n    function _upper(bytes1 _b1) private pure returns (bytes1) {\n        if (_b1 >= 0x61 && _b1 <= 0x7A) {\n            return bytes1(uint8(_b1) - 32);\n        }\n\n        return _b1;\n    }\n\n    //  * Lower\n    //  *\n    //  * Convert an alphabetic character to lower case and return the original\n    //  * value when not alphabetic\n    //  *\n    //  * @param _b1 The byte to be converted to lower case\n    //  * @return bytes1 The converted value if the passed value was alphabetic\n    //  *                and in a upper case otherwise returns the original value\n\n    function _lower(bytes1 _b1) private pure returns (bytes1) {\n        if (_b1 >= 0x41 && _b1 <= 0x5A) {\n            return bytes1(uint8(_b1) + 32);\n        }\n\n        return _b1;\n    }\n}\n",
  "sourcePath": "/Users/kritsanawipankhet/Development/Github/iamblockchain-smartcontract/contracts/libraries/Strings.sol",
  "compiler": {
    "name": "solc",
    "version": "0.8.11+commit.d7f03943.Emscripten.clang"
  },
  "schemaVersion": "3.4.6",
  "updatedAt": "2022-03-27T08:06:22.068Z",
  "networkType": "ethereum",
  "devdoc": {
    "kind": "dev",
    "methods": {
      "toString(bytes)": {
        "details": "Converts a bytes` to its ASCII `string` decimal representation."
      }
    },
    "version": 1
  },
  "userdoc": {
    "kind": "user",
    "methods": {},
    "version": 1
  }
}